:020000040800F2
:10000000D0080020C5000008AD1E000889180008AF
:1000100000000000000000000000000000000000E0
:10002000000000000000000000000000071F0008A2
:100030000000000000000000051F0008591F000814
:10004000D7000008D7000008D7000008D700000834
:10005000D7000008D7000008D7000008D700000824
:1000600000000000D7000008D7000008D7000008F3
:10007000D7000008D51F0008D7000008D7000008E7
:10008000D70000080000000000000000D7000008B2
:1000900000000000D7000008D7000008D7000008C3
:1000A00000000000D700000800000000D700000892
:1000B0000348854600F08EF800480047D126000826
:1000C000D00800200448804704480047FEE7FEE7C8
:1000D000FEE7FEE7FEE7FEE7D31F0008B1000008D9
:1000E00030B50B46014600202022012409E00D46D0
:1000F000D5409D4205D31D469540491B2546954058
:1001000040191546521E002DF1DC30BDF0B51FB46C
:100110000646002082B005464024019100901BE075
:10012000019922460F46304600F030F8049A059BAC
:10013000801A994110D310461946224600F016F84D
:10014000361A8F410197224601200021009F00F0BE
:100150000DF838184D4100902046641E0028DFDC61
:10016000019B00982946324607B0F0BD10B5202A01
:1001700004DB0146203A9140002010BD914020232D
:100180009C1A0346E3401943904010BD10B5202A45
:1001900004DB0846203AD040002110BD0B46D34076
:1001A000D0402024A21A91400843194610BDD2B273
:1001B00001E00270401C491EFBD270470022F6E7A6
:1001C00010B513460A4604461946FFF7F0FF2046CD
:1001D00010BD0000064C0125064E05E0E36807CC83
:1001E0002B430C3C98471034B442F7D3FFF764FF1D
:1001F000482700086827000810B509490A6893686D
:100200001024234393600A689368DB06FCD401231F
:10021000834093620868816804221143816010BDA5
:10022000C403002010B5012209201146C00600F0C9
:1002300035FB10BD10B5094C0121002249032046B1
:1002400000F02CFB012100228903204600F026FB50
:1002500000226101204600F021FB10BD000400488F
:1002600070B5194B012189034D00184C1A680028FC
:100270000FD0FF26106A0236B043106218681022B1
:10028000036A134303620022204600F007FB0122A9
:100290000EE0166A1120864316621868FF22036A70
:1002A0000132134303620122204600F0F7FA0022D4
:1002B0002946204600F0F2FA012100224903204697
:1002C00000F0ECFA70BD00007C0300200004004840
:1002D00070B5194B012149038D00184C1A6800288C
:1002E0000FD0FF26106A1136B04310621868012241
:1002F000036A134303620022204600F0CFFA012272
:100300000EE0166A1120864316621868FF22036AFF
:100310000132134303620122204600F0BFFA00229B
:100320002946204600F0BAFA01210022890320461E
:1003300000F0B4FA70BD00007C0300200004004807
:1003400070B5194B012149034D00184C1A6800285B
:100350000FD0FF26106A1136B043106218680122D0
:10036000036A134303620022204600F097FA012239
:100370000EE0FF26106A0236B043106218681022A1
:10038000036A134303620122204600F087FA002229
:100390002946204600F082FA01210022C9032046A6
:1003A00000F07CFA70BD00007C03002000040048CF
:1003B00010B5084C01225103204600F06FFA0122CB
:1003C0009103204600F06AFA0122D103204600F092
:1003D00065FA10BD0004004809240122E406114614
:1003E000204600F05BFAFF25F535284600F08AF933
:1003F0000121204600F04AFAF7E7000001480068B2
:10040000808C704704040020F8B500250446203491
:100410000095227D012A3BD00122227503689E6847
:10042000760776D43F4F4E68BE4254D09E6A0F780E
:10043000BA4016439E620123C26A1B079A421FD02C
:10044000012A1DD0022A1BD0032A19D0042A17D052
:10045000052A15D0062A13D0072A11D002688B6806
:1004600056697607760FB3420AD05369DB08DB0082
:100470005361006842690B7A5B075B0F1A43426164
:100480000868102806D0112804D0122802D045E0B0
:100490000220F8BD244A9368102809D011280AD0F8
:1004A00001200006034393600868102806D035E059
:1004B0000120C005F6E701208005F3E71C481B4931
:1004C0000068FFF70DFE0A21484300E0401E00903F
:1004D0000028FBD122E0986A0E78B24090439862DF
:1004E0000868102803D0112801D0122816D10E490F
:1004F0008A68102807D0112808D0012000068243FE
:100500008A600BE005E00120C005F8E701208005C6
:10051000F5E7816B202211438163012500202075BE
:100520002846F8BD011000000027014040420F009E
:100530000C010020F8B500260446002805D0A06B69
:1005400025462035002802D007E00120F8BD002014
:10055000E0632875204600F0A9F8A06B1022C006C1
:10056000002870DB2068816849076CD4A16B1301F7
:10057000994302231943A16381688907890F0129DF
:1005800005D10168C9070FD1C16809040CD4C1683D
:1005900018239943A3681943C160206801696368FF
:1005A00089008908194301612068C1683D4B1940E1
:1005B000C160207E617E8003C9030843A17E4B0396
:1005C0001843A36A012B02D001231B0300E0002380
:1005D0001843E36818432369022B09D0002318430A
:1005E0002B79E57E5B0018430123012D02D00AE040
:1005F0000423F4E7002927D0A16B20252943A16318
:10060000E16B1943E163E1690D46FF3DC23D02D054
:10061000256A294308432168CD680543CD6001253B
:10062000E16A2D07A94213D0012911D002290FD068
:1006300003290DD004290BD0052909D0062907D09C
:10064000072905D010E028E0012109040843DAE772
:1006500021684D69ED08ED004D6121684D69A78D58
:100660007F077F0F3D434D612168C9680E4D2940CA
:10067000814207D10020E063A06B80088000401C0D
:10068000A06308E0A06B022188431043A063E06BE5
:100690001843E06301263046F8BDA06B1043A06309
:1006A000F8E700001902FEFFE7FF3F8310B586B0B0
:1006B000044614216846FFF781FD104920688842EE
:1006C00019D10F48826941150A43826182690A4043
:1006D0000592426909020A43426140690840059057
:1006E0000820009003200190002002900920694614
:1006F000C00600F019F806B010BD0000002401404B
:100700000010024070B5044600F0CEF80546601CAB
:1007100002D004480078241800F0C6F8401BA0421C
:10072000FAD370BD00010020FCB5002301249CE039
:1007300027462A469F403A4073D04D68012D05D088
:10074000022D03D0112D01D0122D16D1856803265C
:10075000AC465D00AE46AE406546B543AC46CE689D
:100760007546AE4065462E43866046680D79BE43A9
:10077000ED06ED0F9D4035434560C6685F000325DB
:10078000BD40AE46AE4335468E68BE402E43C66081
:100790004E68022E01D0122E14D1DE08B600361893
:1007A0000196366A5D07B446EE0E0F25B5400096F9
:1007B0006646AE43B4460D69009EB54066462E437C
:1007C000019D2E6206687546AE430D79AD07AD0FEB
:1007D000BD40354305604D68ED0045D5264DAE69F9
:1007E0002643AE61AD699E08ED07ED0F0095234DE0
:1007F000B6007519AC46AD689E07360F0F27B74097
:10080000BD430927FF06B84201D100270BE01C4F6A
:10081000B84201D1012706E01A4FB84202D102279F
:1008200001E021E00527B7402F436546AF60164E33
:1008300035684F689543FF0300D5154335607568EB
:100840004F689543BF0300D515437560B5684F6881
:100850009543FF0200D51543B560F5684F68954391
:10086000BF0200D51543F5605B1C0A681546DA40E7
:1008700000D05DE7FCBD0000001002400000014018
:100880000004004800080048000401404269134683
:100890000B401B0491430B4383617047002A01D036
:1008A00081617047816270470148006F70470000A6
:1008B000000000200248016F491C016770470000DA
:1008C0000000002010B506480168102211430160A5
:1008D000002000F007F800F027F8002010BD00000D
:1008E0000020024070B504460D4D7D202978C000DF
:1008F000FFF7F6FB01460B480068FFF7F1FB00F03D
:1009000043FB002809D1042C07D200222146401EB7
:1009100000F02AF800206C6070BD012070BD00005E
:10092000000100200C01002008B50848816901225F
:1009300011438161816911400091C26901040A4338
:10094000C261C0690840009008BD0000001002406C
:10095000002805DBC106C90E012088400149086056
:100960007047000000E100E010B501F07FFE10BD0F
:10097000F8B505460068354CC00352D5E06900263D
:10098000C00007D4E16920040143E161E16901404D
:10099000012600912E480168C90510D4016882150E
:1009A00011430160FFF780FF074604E0FFF77CFF7B
:1009B000C01B642824D826480068C005F6D5206AE4
:1009C00003273F02384020D06968394081421CD05B
:1009D000206A226AB843012109040A432262226A7A
:1009E0008A4322622062C0070FD0FFF75DFF0090AC
:1009F00008E0FFF759FF0099411A1648814201D9D2
:100A00000320F8BD206A8007F3D5206A6968B843DF
:100A100008432062002E04D0E169012000078143D1
:100A2000E1612878C00705D0206BA96880088000A4
:100A3000084320632878800605D5206B1021884361
:100A4000E968084320630020F8BD00000010024060
:100A50000070004088130000F8B50F46060059D01A
:100A60003A4D2868C007C00FB84209D2286840082C
:100A70004000384328602868C007C00FB84249D1F9
:100A80003068334C81070CD5400704D560680721D6
:100A90000902084360606068F0218843B168084338
:100AA00060603078C00726D0706801280ED02168B9
:100AB00002280ED0890700292CDA6168890889008C
:100AC00001436160FFF7F0FE00900DE021688903AB
:100AD000F1E78901EFE7FFF7E7FE0099411A1D48AA
:100AE000814201D90320F8BD60680C21084071687B
:100AF00089008842EFD12868C007C00FB8420BD9DF
:100B0000286840084000384328602868C007C00FA4
:100B1000B84201D00120F8BD3078400706D56068A2
:100B2000072109028843F1680843606000F028F853
:100B30006168094A0906090F515CC8400749086005
:100B40000020FFF7CFFE0020F8BD0000002002408B
:100B50000010024088130000302700080C0100201C
:100B60000448054900684968044A4905490F515C31
:100B7000C84070470C0100200010024040270008C8
:100B800010B514A30FCB88B06C460FC415A30FCBC0
:100B90000FC4184A51680C200B4603401648042B1A
:100BA00016D0082B14D18B021B0F6C46E45CD26A62
:100BB00004AB1207120F9A5CC90305D5002319462E
:100BC000FFF7A4FA214601E020460C4901F029FD77
:100BD00008B010BD02030405060708090A0B0C0D36
:100BE0000E0F10100102030405060708090A0B0C7A
:100BF0000D0E0F100010024000127A0000093D0097
:100C0000FEB5040070D02078DC4DC0074AD068687B
:100C10000007800F012807D068680007800F0228AE
:100C200009D16868C00306D5286880033AD5606892
:100C30000028E7D036E06168012914D00120800443
:100C4000002901D0052914D02A68012109048A430A
:100C50002A602968814329606068002816D0FFF760
:100C600023FE06460EE02868012109040843286097
:100C7000F2E7296801432960F5E7FFF715FE801BBD
:100C800064286ED828688003F7D50BE0FFF70CFEC8
:100C9000064604E0FFF708FE801B6428F1D82868A8
:100CA0008003F7D420780126800700283CDA6868A2
:100CB0000007800F07D068680007800F022809D15D
:100CC0006868C00306D42868800716D5E068012844
:100CD0000AD112E0E0680028286816D03043286066
:100CE000FFF7E2FD074605E043E1FFF7DDFDC01B2E
:100CF0000228C6D828688007F7D52868F8218843D5
:100D00002169C900084328600EE0400840002860BF
:100D1000FFF7CAFD074604E0FFF7C6FDC01B022827
:100D2000AFD828688007F7D42078000722D5E0697B
:100D30000028686A0ED030436862FFF7B5FD0746A9
:100D400004E0FFF7B1FDC01B02289AD8686A80074B
:100D5000F7D50FE0400840006862FFF7A5FD0746A1
:100D600005E09DE0FFF7A0FDC01B022889D8686A56
:100D70008007F7D4207804274007002860DA002095
:100D80000190E869C00008D4E969B8060143E96147
:100D9000E969014001200091019079480168C90585
:100DA00011D40168821511430160FFF77DFD0090A9
:100DB00005E0FFF779FD0099401A642870D8704863
:100DC0000068C005F5D5A06801280AD0002801D028
:100DD000052810D0286A400840002862286AB843D5
:100DE00001E0286A30432862A068002812D0FFF78B
:100DF0005BFD00900AE0286A38432862F1E7FFF7BC
:100E000053FD0099411A5F48814249D8286A8007FA
:100E1000F5D50DE0FFF748FD009006E0FFF744FD33
:100E20000099411A574881423AD8286A8007F5D478
:100E30000198002804D0E969012000078143E96195
:100E40002078C00635D5606901280CD0401D686B3C
:100E500023D038436863686B400840006863FFF73D
:100E600023FD064622E0686B38436863686B3043B5
:100E70006863FFF719FD064604E0FFF715FD801BC8
:100E800002285BD8686B8007F7D5686BF821884328
:100E9000A169C900084368630BE0B8436863F4E7DD
:100EA0004CE0FFF701FD801B022847D8686B8007E4
:100EB000F7D4206A00285ED069680907890F0229E3
:100EC00042D0012636060228286805D0B0432860A3
:100ED000FFF7EAFC044633E0B0432860FFF7E4FC88
:100EE000074604E0FFF7E0FCC01B022826D828686C
:100EF0008001F7D4E86AE16A000900010843E8626A
:100F0000616AA06A084369683D221204914308435C
:100F10006860286830432860FFF7C6FC044604E098
:100F2000FFF7C2FC001B022808D828688001F7D50B
:100F300021E0FFF7B9FC001B022801D90320FEBD08
:100F400028688001F5D416E00128F8D06868E96ABD
:100F500001221204636A02409A420AD10907E26A36
:100F6000090F914205D10F2189040840A16A8842E6
:100F700001D00120FEBD0020FEBD00000010024097
:100F80000070004088130000094910B5401E8842D7
:100F900001D9012010BD074C60610321081F01F039
:100FA00065FB0020A06107202061002010BD00002B
:100FB000FFFFFF0000E000E07047704730B50346D8
:100FC00020331A7F012A26D001221A770325CA6806
:100FD0002D02AA438D6800242A430125AD02AA43AD
:100FE0004D6800682A430125ED02AA430D682A4393
:100FF00001252D03AA430D692A4301256D03AA4348
:101000004D69C9692A430125AD03AA430A434264D5
:101010001C77002030BD022030BDF0B503462033E0
:101020001C7F012C0AD001241C77002908D010292C
:1010300006D0202904D0302902D00AE00220F0BDD9
:101040000568AE687027BE43AE600568AE680E43A3
:10105000AE6001684D6825434D6001684C68042509
:10106000AC434C6001684C6814434C600168CA682A
:101070002024A243CA600068C16822029143C16073
:1010800000201877F0BD0000F0B502462032137F33
:10109000012B1ED00125157702235377066874684B
:1010A000B3687027BC430F682743776000680A4C19
:1010B000A04205D0AC07A04202D0084CA04204D107
:1010C00080244968A3431943816055770020107735
:1010D000F0BD0220F0BD0000002C014000040040E3
:1010E00070B5040005D025462035687F002802D061
:1010F00006E0012070BD00202877204600F014F89B
:1011000002206877211D206800F06CFF0120403428
:10111000A071A877E87720706070A070E0702071EF
:1011200060716877002070BD08B5154A01681548E0
:1011300091420FD18269C1140A4382618069002201
:101140000840009011460D20FFF70EFC0D20FFF720
:10115000FFFB08BD01229207914206D1C16901221D
:101160001143C161C069104008E0074A9142F0D1C3
:10117000C26902210A43C261C0690840009008BDEB
:10118000002C01400010024000040040F8B5054664
:1011900004462035287F012817D001262E7702200B
:1011A0006877226890687727FF23B8431B0298432B
:1011B00090600A68502A31D00EDC202A4BD006DC21
:1011C000002A48D0102A3AD145E00220F8BD302A42
:1011D00041D0402A33D136E0602A27D0702A12D07D
:1011E00001200003121A2AD0824228D1CB684A6813
:1011F0008968206800F045FF206881680122920319
:10120000114381601BE0CB684A688968206800F060
:1012100038FF216888683843886010E0CA684968E8
:10122000206801F066F85021206806E0CA68496825
:10123000206801F06FF86021206800F02DFF6E77C4
:1012400000202877F8BDCA684968206801F051F885
:1012500040212068F1E711462068EEE7704770B53D
:101260000446006801690025C9438907002915DB88
:10127000C168C943890711D4E91E016101202077A3
:10128000206880698007204602D0FFF7E7FF04E06E
:1012900000F003F9204600F0AFF9257720680169D6
:1012A000C943490717D4C168C943490713D4042166
:1012B000C943016102202077206880698005800F82
:1012C000204602D0FFF7CAFF04E000F0E6F820460F
:1012D00000F092F9257720680169C943090716D4FF
:1012E000C168C943090712D40821C9430161042018
:1012F00020772068C0698007204602D0FFF7AEFF44
:1013000004E000F0CAF8204600F076F9257720685E
:101310000169C943C90617D4C168C943C90613D4B2
:101320001021C9430161082020772068C069800529
:10133000800F204602D0FFF791FF04E000F0ADF8E7
:10134000204600F059F9257720680169C943C9078B
:1013500008D1C168C943C90704D1891E016120466B
:1013600000F0E0F920680169C943090609D4C168A1
:10137000C943090605D48021C94301612046FFF70E
:101380001BFE20680169C943490609D4C168C943E5
:10139000490605D44021C9430161204600F0E9F91E
:1013A00020680169C943890609D4C168C94389060F
:1013B00005D42021C94301612046FFF7FEFD70BD21
:1013C00070B586B0044614216846FEF7F7FE1D4B43
:1013D00001202268092600251B4940040224F60644
:1013E0009A4219D14B69420013434B614B69134038
:1013F00005934A6902434A6149696A4601400720E8
:101400000591400331C26946104803950494FFF7E3
:101410008BF9072000020AE001239B079A420ED1B4
:101420004A6902434A6149690140D81305916A46F5
:1014300031C26946304603950494FFF775F906B04A
:1014400070BD0000002C0140001002400004004864
:1014500010B504462034237F012B0AD001232377C3
:10146000002A08D0042A0AD0082A0CD00C2A11D14C
:101470000DE0022010BD006800F016FE0AE00068D2
:1014800000F04EFE06E0006800F084FE02E0006816
:1014900000F0BCFE0020207710BD704770B504003E
:1014A00005D025462035687F002802D006E00120BF
:1014B00070BD00202877204600F014F802206877DD
:1014C000211D206800F08EFD01204034A071A87716
:1014D000E87720706070A070E070207160716877AC
:1014E000002070BD7047F8B5064604462036307FB0
:1014F0000D4601280BD0012008273077002A08D09C
:10150000042A16D0082A2AD00C2A4DD137E002200E
:10151000F8BD206800F0C8FD206881693943816109
:1015200020688169042291438161206881692A6968
:1015300012E0206800F0F4FD206881690122D202E7
:101540001143816120688269012189028A43826195
:10155000206881692A6912021143816124E02068B0
:1015600000F018FE2068C1693943C1612068C16973
:1015700004229143C1612068C1692A6912E0206890
:1015800000F044FE2068C1690122D2021143C1610A
:101590002068C269012189028A43C2612068C16949
:1015A0002A6912021143C16100203077F8BD70B57D
:1015B000040005D025462035687F002802D006E0CB
:1015C000012070BD00202877204600F014F802208A
:1015D0006877211D206800F005FD01204034A071CE
:1015E000A877E87720706070A070E070207160715B
:1015F0006877002070BD70477047000010B5044642
:101600000222203000290AD004290DD02046403083
:1016100008290ED04378012B10D0012010BD837F04
:10162000012BFAD182770AE0C37F012BF5D1C27773
:1016300005E00378012BF0D1027000E04270012236
:10164000206800F011FD114A2068904205D0104931
:10165000884202D00F49884204D1416C0123DB0348
:101660001943416420680121904205D08A079042C5
:1016700002D0094A904204D182685207520F062ACA
:1016800002D002680A430260002010BD002C014015
:1016900000440140004801400004004070B5044689
:1016A0000D460068002200F0DFFC1B4A194B206841
:1016B0009110984205D0194B984202D0184B98428D
:1016C0000AD1036A134207D1036A0B4204D1436C67
:1016D0000126F603B34343642068036A134206D12C
:1016E000026A0A4203D101684908490001602046A4
:1016F00020300121002D07D0042D07D04034082DC3
:1017000006D06170002070BD8177FBE7C177F9E7F3
:101710002170F7E7002C0140111100000044014046
:1017200000480140704770B5044605462034207FCC
:1017300001280ED00126267702206077284600F087
:1017400095FD01460020002905D06677207701200D
:1017500070BD022070BD2968CA6840239A43CA60E0
:101760002968CA681B029A43CA60667720770020FE
:1017700070BD704710B5040003D0A06F002802D0E0
:1017800007E0012010BD002174200155204600F023
:1017900027F82420A06720680168490849000160F3
:1017A000204600F061FE0128ECD0606A002802D0DB
:1017B000204600F0C2FD206841680922D202914310
:1017C0004160206881682A22914381602068016815
:1017D000012211430160204600F014FE10BD0000FC
:1017E00010B586B0044614216846FEF7E7FC11499F
:1017F000206888421CD110488269012189030A436C
:10180000826182690A400592426909010A43426184
:10181000406908400590C0200090022000210190FE
:10182000032002910491039069460448FEF77CFF6F
:1018300006B010BD0038014000100240000400480E
:10184000044A491E12680906490E89003432891873
:10185000086070477C0300200149096848637047AD
:101860007C03002001490968886370477C030020DD
:1018700001490968C86370477C0300200149096871
:10188000086470477C030020FEE7000010B50446A2
:101890000F48027E6038016B002A16D0002901DD56
:1018A0004942016321600A4920390A8EA280498E8B
:1018B000C28F5143E180C18F406FFEF711FCA060E1
:1018C0002720A0810348E08110BD0029E8DBE9E77B
:1018D0000C0300201F0300000149C96908470000EC
:1018E000C00000200149096A08470000C00000202C
:1018F0000149496A08470000C00000200149896A7F
:1019000008470000C000002010B500F017F8084993
:101910000848CA684260496801600749CA68C260ED
:101920004968816001216030017100F02BF810BD21
:1019300088040020AC0200207C03002010B50E4873
:101940004621C06848437D21C900FEF7C9FB0B4909
:1019500007228882084640304285094ACA6620220A
:101960000286042242860120486704480021603034
:101970000176417610BD00007C030020AC020020FF
:1019800070110100F8B5404E0024B08A7082B18910
:10199000081A30820120F0873046203000904477CA
:1019A0003A48708334763A48B4750268C168D162A7
:1019B000C068706037484168006881623548C16816
:1019C0000068C16237464037334D788DA886FFF7EF
:1019D000D7F8B0642F48808980B2FFF77DFF2D488B
:1019E000808980B2FFF77EFF2A48808980B2FFF7A6
:1019F0007FFF00980477FC70BC70F4620320B4632E
:101A0000F0753C8030466030B462447184713C7142
:101A10007C71C4712C676C66AC66AC84AC83EC647E
:101A20002C656C656C64AC64EC632C640121AC6562
:101A3000E984EC662C85AC702C71EC70EC856C67DD
:101A4000AC6729866C86E9672946803100238B6064
:101A50000C60CB600246194630328B00491C89B2BB
:101A6000D4501029F9D32C70007E002808D00B48E0
:101A700030630120688504488030FFF707FFF8BD18
:101A80007D200001F4E70000AC02002010270000D8
:101A9000880400207C0300200000002030F8FFFFB5
:101AA000F8B5224C0025E5804B20E083642020849B
:101AB000032060846583E58225816581A581E581B8
:101AC00025822046658290300580083005800830E8
:101AD0000580012608300680083006800830068020
:101AE0001348E5662566C821009007468187403F78
:101AF000B889B98A401A80B2FFF700FFB88A7882A5
:101B0000FEF790FB0098408DA08625670420F875AD
:101B1000E684002207490848FFF77FFA009806800C
:101B20003846657020304677F8BD00000000002080
:101B3000EC020020FFFF00007C0300203EB50020E7
:101B4000204C0090019002901D4960602160234666
:101B5000A060012104220C3307C320766076A076B2
:101B6000FF22E076C232E26122462062203210710A
:101B70002046A162FEF7DEFC00281ED101200003F2
:101B80000190000403250290009569462046FEF767
:101B90003BFC002811D11020009069462046FEF73A
:101BA00033FC002809D1012080020095206269469B
:101BB0002046FEF729FC002801D0FEF70DFC3EBDB3
:101BC0000024014010010020F0B587B014216846C0
:101BD000FEF7F4FA2D484269012189050A43426162
:101BE00042690A400592426949110A4342614269C9
:101BF0000A400592426949000A4342614069092648
:101C00000840F6060590002221493046FEF746FEC0
:101C1000204F0022C0213846FEF740FE032000245A
:101C200000900194694602943846FEF77DFD072036
:101C30000125009001956946029503943046FEF710
:101C400073FD022000900194694602941248FEF749
:101C50006BFDE802009002946946019503943046BA
:101C6000FEF762FD402000900294694601950394BE
:101C70003846FEF759FD802000900195694602958F
:101C800003943846FEF750FD07B0F0BD0010024047
:101C9000070800000014004800040048F0B597B0A1
:101CA00014210FA8FEF78AFA002414941C21684618
:101CB0001594FEF783FA202107A8FEF77FFA2D4935
:101CC0002D4820252D4E72C0046080278760446017
:101CD0001038FFF705FA002845D12748FFF767FCC1
:101CE000002840D106200FA921C123480839FFF759
:101CF0001AFD002837D1702014A981C11E48083967
:101D0000FFF7C2F900282ED1602000900220029037
:101D100008200196039004940594002269460694D5
:101D20001548FFF7E0FB00281DD104226946124840
:101D3000FFF7D9FB002816D1082269460E48FFF7A5
:101D4000D2FB00280FD114200A90E8010B900794D1
:101D5000400009940C90089407A90E940648FFF7D8
:101D60002DF9002801D0FEF737FB0348FFF728FBC9
:101D700017B0F0BD002C0140500100201F030000EF
:101D800010B58EB0142107A8FEF718FA00240C94A1
:101D90001C2168460D94FEF711FA01211A488907A3
:101DA00012C00460FF218460403104614160083842
:101DB000FFF796F9002820D11348FFF76FFB0028A2
:101DC0001BD1042007A911C10F480839FFF7ABFC4C
:101DD000002812D10C940CA90B480D94FFF754F96C
:101DE00000280AD100940194029400226946064812
:101DF0000494FFF72DFB002801D0FEF7EDFA02480E
:101E0000FFF7DEFA0EB010BD9801002010B586B0C5
:101E100000240094154801940294039404941249F8
:101E2000059401600B218460416011490461C16027
:101E300080218161FFF754F9002811D101200003AE
:101E4000009069460948FFF7A1F9002808D1202031
:101E500004A911C105480839FFF716F9002801D077
:101E6000FEF7BAFA06B010BD00040040E001002001
:101E7000FFFF000010B50C480A490160E12189020A
:101E8000416000218160C16001618161C1610C22FA
:101E9000016242614162FFF76DFC002801D0FEF74C
:101EA0009BFA10BD0038014028020020704702460E
:101EB00010B501210920C902C006FEF7EFFC10BDD4
:101EC00010B50F4C002810D0012810D0022810D0D7
:101ED000032809D1012240212046FEF7DFFC012220
:101EE00080212046FEF7DAFC10BD002202E000222D
:101EF000F1E7012240212046FEF7D0FC0022EFE767
:101F0000001400487047704710B500210748FFF7DC
:101F100075FB04210548FFF771FB08210348FFF713
:101F20006DFB0C210148FFF769FB10BD7C0300200D
:101F300010B500210748FFF7B1FB04210548FFF762
:101F4000ADFB08210348FFF7A9FB0C210148FFF76F
:101F5000A5FB10BD7C03002010B5FEF7ABFC10BD47
:101F600070B594B030216846FEF728F900240125A9
:101F70000F9412200595009010200E941094139445
:101F8000049006900D9405201294C0040C940395BF
:101F900002260A901194089609940B946846FEF75D
:101FA0002FFE002811D107200C900E9401210D96D0
:101FB0000F940CA8FEF750FD002806D110A810952C
:101FC0001294FEF7D5FC002801D0FEF705FA14B0F4
:101FD00070BD704710B50248FFF741F910BD000011
:101FE00050010020F0B502681A4B0124A4071A4DD5
:101FF000984203D0A04201D0A84203D17026B24338
:102000004E683243154E164F98420AD0A04208D06F
:10201000A84206D0134CA04203D0B04201D0B8422F
:1020200004D103242402A243CC6822438024A24387
:102030004C69224302608A68C2620A6882629842DE
:1020400003D0B04201D0B84201D109690163012136
:102050004161F0BD002C01400004004000440140FB
:10206000004801400020004010B5CB06DB0E0121E6
:10207000046A99408C430462016A9A4011430162E8
:1020800010BD30B58468FF252D021B021343AC43FD
:102090000B432343836030BD826870239A430A4315
:1020A00007210A4382607047F0B5026A5208520065
:1020B0000262056A436882697024A24392080C6830
:1020C00092001443022295438A68134E2A43114D0D
:1020D000A84204D0B04202D0104FB84206D108271F
:1020E000BA43CF681743042297433A46A84204D024
:1020F000B04202D0094DA84206D103252D02AB43C0
:102100004D691D438B692B4343608461496841637A
:102110000262F0BD002C0140004401400048014033
:1021200070B5026A10239A430262046A43688269A6
:1021300073252D02AA430D682D02154320229443D6
:102140008A6812012243104CA04208D11446CA6882
:102150008026B443120122434024A24305E00B4CE5
:10216000A04202D00A4CA04208D10324A402A343F7
:102170004C69A4001C438B699B0023434360856129
:1021800049688163026270BD002C01400044014037
:102190000048014070B5026AFF2301339A4302628E
:1021A000046A4368C2697025AA4392080D689200C8
:1021B00015430122520294438A6812022243104CB2
:1021C000A04207D1C414A243CC68240222430615BE
:1021D000B24305E00B4CA04202D00B4CA04208D108
:1021E00003242403A3434C6924011C438B691B0172
:1021F00023434360C5614968C163026270BD00004A
:10220000002C0140004401400048014030B5026A02
:1022100001231B039A430262056A4268C36973245F
:102220002402A3430C6824021C4301235B039D4347
:102230008B681B032B430A4DA84205D0094DA842C9
:1022400002D0094DA84205D10125AD03AA434D692D
:10225000AD012A434260C46149680164036230BD34
:10226000002C0140004401400048014070B5046862
:10227000A26870239A434B681343DB080A68DB00AB
:102280001A43A2604A6813071B0F30D112111300C2
:1022900000F0DFF9082D2D2D2D0C2228052D0B69BE
:1022A0008A68C9680068FFF7ECFE20E00A68052A22
:1022B00010D00268136A146A640864001462046827
:1022C000A2690969F025AA4309011143A1610068C7
:1022D00003620CE0012070BD0A698968006800F0A3
:1022E00008F804E00A698968006800F013F8002023
:1022F00070BD30B5036A046A6408640004628469CE
:10230000F025AC43120122430A24A3430B4382610C
:10231000036230BD30B5036A1024A34303628469AD
:10232000036A0F252D031203AC432243A024A343C9
:10233000090119438261016230BD10B5818CC90762
:1023400007D001684A6801235B049A43836A1A43F1
:102350004A60818C890707D501684A6801231B04FC
:102360009A43C36A1A434A60818C490707D50168BA
:102370004A6801239B049A43036B1A434A60818C89
:10238000090707D501684A680123DB039A43436BB9
:102390001A434A60818CC90607D5026891680123F7
:1023A0001B039943836B19439160818C890607D580
:1023B00001688A6801235B039A43C36B1A438A60EE
:1023C000818C490612D503685A6801210905046CFD
:1023D0008A4322435A60026C8A4207D102685168DC
:1023E00003235B059943436C19435160818C0906B3
:1023F00007D501684A680123DB04806C9A430243D5
:102400004A6010BDF8B50446002680300660FEF72D
:102410004BFA054620680068124F000709D50121D4
:102420002B46002249052046009700F0ABF8002813
:102430000DD12068006840070BD501212B460022F2
:1024400089052046009700F09DF8002801D0032060
:10245000F8BD2020A067E06726666034267500205E
:10246000F8BD0000FFFFFF0170B5044680682169D8
:10247000E2690843616900251143084321680A683D
:102480003C4B1A4002430A60216848680322120349
:102490009043E26810434860A169206A08432168BC
:1024A0008A680B231B029A4302438A603248006BFE
:1024B0008007800F16D0012818D0022818D00328D2
:1024C00012D010210120E369C0032C4A2C4E834214
:1024D0002BD100290ED002290FD004290FD00829B2
:1024E0003FD110E00021EDE70221EBE70421E9E70D
:1024F0000821E7E7FEF734FB03E0104603E0FEF7B0
:102500003FFB002831D0616840004A088018FDF781
:10251000E7FD80B201461039B14222D81849491C62
:1025200001400007400F08431DE0002906D00229A2
:1025300007D0042907D0082913D108E0FEF710FBC3
:1025400003E0104603E0FEF71BFB00280DD0616896
:102550004A081018FDF7C4FD80B201461039B14297
:1025600001D9012501E02168C86000206066A066ED
:10257000284670BDF369FFFF0010024000127A0088
:10258000EFFF0000FFB581B005460F4604466035F9
:102590000A9E39E0701C37D0FEF786F90499401A7C
:1025A000B04222D8002E20D02068016849072BD5E0
:1025B000C069C043000527D401202168C002086219
:1025C00020680168FF22A132914301602068816880
:1025D0004908490081602020A067E06780342060BE
:1025E00000202875032005B0F0BD20680168FF2297
:1025F000A1329143016020688168490849008160E7
:102600002020A067E067EBE72068C169384688436F
:1026100005D0002103988142BCD00020E3E70121CE
:10262000F8E7F8B5040C8BB2264682B25E430D0C77
:102630001046370C5843360480190021794116465C
:102640006E43370C36048019794126466E4389194A
:10265000F8BD30B47446641E2578641CAB4200D2C9
:102660001D46635D5B00E31830BC18478307FF22FB
:10267000DB0E9A408907090E9940002808DB830881
:1026800009489B001B18186890430843186070475E
:102690000007000F0838830804489B001B18D869FE
:1026A00090430843D861704700E400E000ED00E08B
:1026B00002E008C8121F08C1002AFAD1704770470B
:1026C000002001E001C1121F002AFBD17047000069
:1026D000FEF7F8F8FFF744FCFFF776FAFFF7DEFAAB
:1026E000FFF794FBFFF74CFBFFF728FAFFF7C2FB5D
:1026F00009240122E40611462046FEF7CFF8012204
:1027000002212046FEF7CAF8012204212046FEF7E6
:10271000C5F8064C0120616B8847216B0120884772
:10272000FFF7F2F8FFF7BCF9FCE70000C00000205B
:102730000000000000000000010203040607080971
:1027400000000000010203046827000800000020C8
:1027500010010000B02600087828000810010020B1
:10276000C0070000C02600080001000000000000B3
:102770000000000000000000000000000000000059
:102780000000000000000000000000000000010048
:10279000000001000E000000010000000000000029
:1027A0000000000000000000000000000000000029
:1027B0000000000000000000000000000000000019
:1027C0000000000000000000000000000000000009
:1027D00000000000000000000000000000000000F9
:1027E00000000000000000000000000000000000E9
:1027F00000000000000000000000000000000000D9
:1028000000000000000000000000000000000000C8
:1028100000000000000000000000000000000000B8
:10282000000000000000000041030008D102000881
:1028300061020008B103000835020008091F000802
:10284000311F0008591800086518000871180008A1
:102850007D18000841180008AF1E0008C11E0008BE
:10286000F9010008FD030008010000000400000059
:082870000000000000127A00D4
:04000005080000B13E
:00000001FF
